{
  "abi": [
    {
      "inputs": [
        {
          "internalType": "contract IMangrove",
          "name": "_mgv",
          "type": "address"
        },
        {
          "internalType": "uint256[]",
          "name": "_spread",
          "type": "uint256[]"
        },
        {
          "internalType": "uint256[]",
          "name": "_volume",
          "type": "uint256[]"
        },
        {
          "internalType": "uint256[]",
          "name": "_tenacity",
          "type": "uint256[]"
        },
        {
          "internalType": "address[][]",
          "name": "_pairs",
          "type": "address[][]"
        },
        {
          "internalType": "address",
          "name": "_otherDexFactory",
          "type": "address"
        },
        {
          "internalType": "address",
          "name": "_otherDexRouter",
          "type": "address"
        },
        {
          "internalType": "uint256",
          "name": "_otherDexFees",
          "type": "uint256"
        },
        {
          "internalType": "address",
          "name": "admin",
          "type": "address"
        }
      ],
      "stateMutability": "nonpayable",
      "type": "constructor"
    },
    {
      "anonymous": false,
      "inputs": [
        {
          "indexed": false,
          "internalType": "contract IMangrove",
          "name": "mangrove",
          "type": "address"
        },
        {
          "indexed": true,
          "internalType": "contract IERC20",
          "name": "outbound_tkn",
          "type": "address"
        },
        {
          "indexed": true,
          "internalType": "contract IERC20",
          "name": "inbound_tkn",
          "type": "address"
        },
        {
          "indexed": true,
          "internalType": "uint256",
          "name": "offerId",
          "type": "uint256"
        },
        {
          "indexed": false,
          "internalType": "bytes32",
          "name": "makerData",
          "type": "bytes32"
        },
        {
          "indexed": false,
          "internalType": "bytes32",
          "name": "mgvData",
          "type": "bytes32"
        }
      ],
      "name": "LogIncident",
      "type": "event"
    },
    {
      "anonymous": false,
      "inputs": [
        {
          "indexed": false,
          "internalType": "contract IMangrove",
          "name": "mgv",
          "type": "address"
        }
      ],
      "name": "Mgv",
      "type": "event"
    },
    {
      "anonymous": false,
      "inputs": [
        {
          "indexed": false,
          "internalType": "address",
          "name": "admin",
          "type": "address"
        }
      ],
      "name": "SetAdmin",
      "type": "event"
    },
    {
      "anonymous": false,
      "inputs": [
        {
          "indexed": true,
          "internalType": "address",
          "name": "reserveId",
          "type": "address"
        }
      ],
      "name": "SetReserveId",
      "type": "event"
    },
    {
      "anonymous": false,
      "inputs": [
        {
          "indexed": false,
          "internalType": "contract AbstractRouter",
          "name": "router",
          "type": "address"
        }
      ],
      "name": "SetRouter",
      "type": "event"
    },
    {
      "inputs": [],
      "name": "MGV",
      "outputs": [
        {
          "internalType": "contract IMangrove",
          "name": "",
          "type": "address"
        }
      ],
      "stateMutability": "view",
      "type": "function"
    },
    {
      "inputs": [],
      "name": "NO_ROUTER",
      "outputs": [
        {
          "internalType": "contract AbstractRouter",
          "name": "",
          "type": "address"
        }
      ],
      "stateMutability": "view",
      "type": "function"
    },
    {
      "inputs": [],
      "name": "OFFER_GASREQ",
      "outputs": [
        {
          "internalType": "uint256",
          "name": "",
          "type": "uint256"
        }
      ],
      "stateMutability": "view",
      "type": "function"
    },
    {
      "inputs": [],
      "name": "RESERVE_ID",
      "outputs": [
        {
          "internalType": "address",
          "name": "",
          "type": "address"
        }
      ],
      "stateMutability": "view",
      "type": "function"
    },
    {
      "inputs": [
        {
          "internalType": "contract IERC20[]",
          "name": "tokens",
          "type": "address[]"
        }
      ],
      "name": "activate",
      "outputs": [],
      "stateMutability": "nonpayable",
      "type": "function"
    },
    {
      "inputs": [],
      "name": "admin",
      "outputs": [
        {
          "internalType": "address",
          "name": "current",
          "type": "address"
        }
      ],
      "stateMutability": "view",
      "type": "function"
    },
    {
      "inputs": [
        {
          "internalType": "contract IERC20",
          "name": "token",
          "type": "address"
        },
        {
          "internalType": "address",
          "name": "spender",
          "type": "address"
        },
        {
          "internalType": "uint256",
          "name": "amount",
          "type": "uint256"
        }
      ],
      "name": "approve",
      "outputs": [
        {
          "internalType": "bool",
          "name": "",
          "type": "bool"
        }
      ],
      "stateMutability": "nonpayable",
      "type": "function"
    },
    {
      "inputs": [
        {
          "internalType": "contract IERC20[]",
          "name": "tokens",
          "type": "address[]"
        }
      ],
      "name": "checkList",
      "outputs": [],
      "stateMutability": "view",
      "type": "function"
    },
    {
      "inputs": [],
      "name": "createInitialOffers",
      "outputs": [],
      "stateMutability": "payable",
      "type": "function"
    },
    {
      "inputs": [],
      "name": "getOfferLists",
      "outputs": [
        {
          "internalType": "uint256[][]",
          "name": "",
          "type": "uint256[][]"
        }
      ],
      "stateMutability": "view",
      "type": "function"
    },
    {
      "inputs": [],
      "name": "getTrackedPairs",
      "outputs": [
        {
          "internalType": "address[][]",
          "name": "",
          "type": "address[][]"
        }
      ],
      "stateMutability": "view",
      "type": "function"
    },
    {
      "inputs": [
        {
          "components": [
            {
              "internalType": "address",
              "name": "outbound_tkn",
              "type": "address"
            },
            {
              "internalType": "address",
              "name": "inbound_tkn",
              "type": "address"
            },
            {
              "internalType": "uint256",
              "name": "offerId",
              "type": "uint256"
            },
            {
              "internalType": "OfferPacked",
              "name": "offer",
              "type": "uint256"
            },
            {
              "internalType": "uint256",
              "name": "wants",
              "type": "uint256"
            },
            {
              "internalType": "uint256",
              "name": "gives",
              "type": "uint256"
            },
            {
              "internalType": "OfferDetailPacked",
              "name": "offerDetail",
              "type": "uint256"
            },
            {
              "internalType": "GlobalPacked",
              "name": "global",
              "type": "uint256"
            },
            {
              "internalType": "LocalPacked",
              "name": "local",
              "type": "uint256"
            }
          ],
          "internalType": "struct MgvLib.SingleOrder",
          "name": "order",
          "type": "tuple"
        }
      ],
      "name": "makerExecute",
      "outputs": [
        {
          "internalType": "bytes32",
          "name": "data",
          "type": "bytes32"
        }
      ],
      "stateMutability": "nonpayable",
      "type": "function"
    },
    {
      "inputs": [
        {
          "components": [
            {
              "internalType": "address",
              "name": "outbound_tkn",
              "type": "address"
            },
            {
              "internalType": "address",
              "name": "inbound_tkn",
              "type": "address"
            },
            {
              "internalType": "uint256",
              "name": "offerId",
              "type": "uint256"
            },
            {
              "internalType": "OfferPacked",
              "name": "offer",
              "type": "uint256"
            },
            {
              "internalType": "uint256",
              "name": "wants",
              "type": "uint256"
            },
            {
              "internalType": "uint256",
              "name": "gives",
              "type": "uint256"
            },
            {
              "internalType": "OfferDetailPacked",
              "name": "offerDetail",
              "type": "uint256"
            },
            {
              "internalType": "GlobalPacked",
              "name": "global",
              "type": "uint256"
            },
            {
              "internalType": "LocalPacked",
              "name": "local",
              "type": "uint256"
            }
          ],
          "internalType": "struct MgvLib.SingleOrder",
          "name": "order",
          "type": "tuple"
        },
        {
          "components": [
            {
              "internalType": "bytes32",
              "name": "makerData",
              "type": "bytes32"
            },
            {
              "internalType": "bytes32",
              "name": "mgvData",
              "type": "bytes32"
            }
          ],
          "internalType": "struct MgvLib.OrderResult",
          "name": "result",
          "type": "tuple"
        }
      ],
      "name": "makerPosthook",
      "outputs": [],
      "stateMutability": "nonpayable",
      "type": "function"
    },
    {
      "inputs": [
        {
          "internalType": "contract IERC20",
          "name": "outbound_tkn",
          "type": "address"
        },
        {
          "internalType": "contract IERC20",
          "name": "inbound_tkn",
          "type": "address"
        },
        {
          "internalType": "uint256",
          "name": "wants",
          "type": "uint256"
        },
        {
          "internalType": "uint256",
          "name": "gives",
          "type": "uint256"
        },
        {
          "internalType": "uint256",
          "name": "pivotId",
          "type": "uint256"
        },
        {
          "internalType": "uint256",
          "name": "gasreq",
          "type": "uint256"
        }
      ],
      "name": "newOffer",
      "outputs": [
        {
          "internalType": "uint256",
          "name": "offerId",
          "type": "uint256"
        }
      ],
      "stateMutability": "payable",
      "type": "function"
    },
    {
      "inputs": [],
      "name": "offerGasreq",
      "outputs": [
        {
          "internalType": "uint256",
          "name": "",
          "type": "uint256"
        }
      ],
      "stateMutability": "view",
      "type": "function"
    },
    {
      "inputs": [
        {
          "internalType": "uint256",
          "name": "",
          "type": "uint256"
        },
        {
          "internalType": "uint256",
          "name": "",
          "type": "uint256"
        }
      ],
      "name": "offerLists",
      "outputs": [
        {
          "internalType": "uint256",
          "name": "",
          "type": "uint256"
        }
      ],
      "stateMutability": "view",
      "type": "function"
    },
    {
      "inputs": [],
      "name": "otherDexFactory",
      "outputs": [
        {
          "internalType": "address",
          "name": "",
          "type": "address"
        }
      ],
      "stateMutability": "view",
      "type": "function"
    },
    {
      "inputs": [],
      "name": "otherDexFees",
      "outputs": [
        {
          "internalType": "uint256",
          "name": "",
          "type": "uint256"
        }
      ],
      "stateMutability": "view",
      "type": "function"
    },
    {
      "inputs": [],
      "name": "otherDexRouter",
      "outputs": [
        {
          "internalType": "address",
          "name": "",
          "type": "address"
        }
      ],
      "stateMutability": "view",
      "type": "function"
    },
    {
      "inputs": [
        {
          "internalType": "uint256",
          "name": "",
          "type": "uint256"
        },
        {
          "internalType": "uint256",
          "name": "",
          "type": "uint256"
        }
      ],
      "name": "pairs",
      "outputs": [
        {
          "internalType": "address",
          "name": "",
          "type": "address"
        }
      ],
      "stateMutability": "view",
      "type": "function"
    },
    {
      "inputs": [
        {
          "internalType": "contract IERC20",
          "name": "outbound_tkn",
          "type": "address"
        },
        {
          "internalType": "contract IERC20",
          "name": "inbound_tkn",
          "type": "address"
        },
        {
          "internalType": "uint256",
          "name": "offerId",
          "type": "uint256"
        }
      ],
      "name": "provisionOf",
      "outputs": [
        {
          "internalType": "uint256",
          "name": "provision",
          "type": "uint256"
        }
      ],
      "stateMutability": "view",
      "type": "function"
    },
    {
      "inputs": [
        {
          "internalType": "contract IERC20",
          "name": "outbound_tkn",
          "type": "address"
        },
        {
          "internalType": "contract IERC20",
          "name": "inbound_tkn",
          "type": "address"
        },
        {
          "internalType": "uint256",
          "name": "offerId",
          "type": "uint256"
        },
        {
          "internalType": "bool",
          "name": "deprovision",
          "type": "bool"
        }
      ],
      "name": "retractOffer",
      "outputs": [
        {
          "internalType": "uint256",
          "name": "freeWei",
          "type": "uint256"
        }
      ],
      "stateMutability": "nonpayable",
      "type": "function"
    },
    {
      "inputs": [],
      "name": "router",
      "outputs": [
        {
          "internalType": "contract AbstractRouter",
          "name": "",
          "type": "address"
        }
      ],
      "stateMutability": "view",
      "type": "function"
    },
    {
      "inputs": [
        {
          "internalType": "address",
          "name": "admin_",
          "type": "address"
        }
      ],
      "name": "setAdmin",
      "outputs": [],
      "stateMutability": "nonpayable",
      "type": "function"
    },
    {
      "inputs": [
        {
          "internalType": "contract AbstractRouter",
          "name": "router_",
          "type": "address"
        }
      ],
      "name": "setRouter",
      "outputs": [],
      "stateMutability": "nonpayable",
      "type": "function"
    },
    {
      "inputs": [
        {
          "internalType": "uint256",
          "name": "",
          "type": "uint256"
        }
      ],
      "name": "spread",
      "outputs": [
        {
          "internalType": "uint256",
          "name": "",
          "type": "uint256"
        }
      ],
      "stateMutability": "view",
      "type": "function"
    },
    {
      "inputs": [
        {
          "internalType": "uint256",
          "name": "",
          "type": "uint256"
        }
      ],
      "name": "tenacity",
      "outputs": [
        {
          "internalType": "uint256",
          "name": "",
          "type": "uint256"
        }
      ],
      "stateMutability": "view",
      "type": "function"
    },
    {
      "inputs": [
        {
          "internalType": "contract IERC20",
          "name": "outbound_tkn",
          "type": "address"
        },
        {
          "internalType": "contract IERC20",
          "name": "inbound_tkn",
          "type": "address"
        },
        {
          "internalType": "uint256",
          "name": "wants",
          "type": "uint256"
        },
        {
          "internalType": "uint256",
          "name": "gives",
          "type": "uint256"
        },
        {
          "internalType": "uint256",
          "name": "pivotId",
          "type": "uint256"
        },
        {
          "internalType": "uint256",
          "name": "offerId",
          "type": "uint256"
        },
        {
          "internalType": "uint256",
          "name": "gasreq",
          "type": "uint256"
        }
      ],
      "name": "updateOffer",
      "outputs": [],
      "stateMutability": "payable",
      "type": "function"
    },
    {
      "inputs": [
        {
          "internalType": "uint256[]",
          "name": "_spread",
          "type": "uint256[]"
        },
        {
          "internalType": "uint256[]",
          "name": "_volume",
          "type": "uint256[]"
        },
        {
          "internalType": "uint256[]",
          "name": "_tenacity",
          "type": "uint256[]"
        },
        {
          "internalType": "address[][]",
          "name": "_pairs",
          "type": "address[][]"
        },
        {
          "internalType": "address",
          "name": "_otherDexFactory",
          "type": "address"
        },
        {
          "internalType": "address",
          "name": "_otherDexRouter",
          "type": "address"
        },
        {
          "internalType": "uint256",
          "name": "_otherDexFees",
          "type": "uint256"
        }
      ],
      "name": "updateParams",
      "outputs": [],
      "stateMutability": "nonpayable",
      "type": "function"
    },
    {
      "inputs": [
        {
          "internalType": "uint256",
          "name": "",
          "type": "uint256"
        }
      ],
      "name": "volume",
      "outputs": [
        {
          "internalType": "uint256",
          "name": "",
          "type": "uint256"
        }
      ],
      "stateMutability": "view",
      "type": "function"
    },
    {
      "inputs": [
        {
          "internalType": "uint256",
          "name": "amount",
          "type": "uint256"
        },
        {
          "internalType": "address payable",
          "name": "receiver",
          "type": "address"
        }
      ],
      "name": "withdrawFromMangrove",
      "outputs": [],
      "stateMutability": "nonpayable",
      "type": "function"
    },
    {
      "stateMutability": "payable",
      "type": "receive"
    }
  ],
  "bytecode": {
    "object": "0x60e06040523480156200001157600080fd5b50604051620045ba380380620045ba8339810160408190526200003491620007ee565b886000620186a08383823380620000925760405162461bcd60e51b815260206004820152601860248201527f416363657373436f6e74726f6c6c65642f307841646d696e000000000000000060448201526064015b60405180910390fd5b600080546001600160a01b0319166001600160a01b039290921691909117905562ffffff81168114620001085760405162461bcd60e51b815260206004820152601760248201527f6d67764f666665722f6761737265714f766572666c6f77000000000000000000604482015260640162000089565b6001600160a01b03821660a081905260808290526040519081527f23274a2ea157bc8b802cd1ca98faaaf1e5ed5472079061e406176ba38449d6879060200160405180910390a150506001600160a01b038316156200016c576200016c8362000353565b60006001600160a01b0382161562000185578162000187565b305b6001600160a01b03811660c0819052604051919250907f1efc2ac62377bfc2967149995d76b6a9a1ad2809a99afd6106b5ba742698217f90600090a25050600280546001600160a01b0319166001600160a01b038e1617905550508851620001f8915060039060208b019062000403565b5086516200020e9060049060208a019062000403565b5085516200022490600590602089019062000403565b5084516200023a90600690602088019062000453565b50600780546001600160a01b038087166001600160a01b031992831617909255600880549286169290911691909117905560098290556006546001600160401b038111156200028d576200028d6200060f565b604051908082528060200260200182016040528015620002c257816020015b6060815260200190600190039081620002ac5790505b508051620002d991600a91602090910190620004b3565b5060005b6006548110156200034357604080516000815260208101909152600a8054839081106200030e576200030e620008fd565b9060005260206000200190805190602001906200032d92919062000403565b50806200033a8162000913565b915050620002dd565b505050505050505050506200093b565b6000546001600160a01b03163314620003af5760405162461bcd60e51b815260206004820152601860248201527f416363657373436f6e74726f6c6c65642f496e76616c69640000000000000000604482015260640162000089565b600180546001600160a01b0319166001600160a01b0383169081179091556040519081527f6de4326a8b9054d72d9dbab97d27bc4edffadee7d966f5af9cc4eafdaf8e54559060200160405180910390a150565b82805482825590600052602060002090810192821562000441579160200282015b828111156200044157825182559160200191906001019062000424565b506200044f92915062000513565b5090565b828054828255906000526020600020908101928215620004a5579160200282015b82811115620004a55782518051620004949184916020909101906200052a565b509160200191906001019062000474565b506200044f92915062000582565b82805482825590600052602060002090810192821562000505579160200282015b82811115620005055782518051620004f491849160209091019062000403565b5091602001919060010190620004d4565b506200044f929150620005a3565b5b808211156200044f576000815560010162000514565b82805482825590600052602060002090810192821562000441579160200282015b828111156200044157825182546001600160a01b0319166001600160a01b039091161782556020909201916001909101906200054b565b808211156200044f576000620005998282620005c4565b5060010162000582565b808211156200044f576000620005ba8282620005c4565b50600101620005a3565b5080546000825590600052602060002090810190620005e4919062000513565b50565b6001600160a01b0381168114620005e457600080fd5b80516200060a81620005e7565b919050565b634e487b7160e01b600052604160045260246000fd5b604051601f8201601f191681016001600160401b03811182821017156200065057620006506200060f565b604052919050565b60006001600160401b038211156200067457620006746200060f565b5060051b60200190565b600082601f8301126200069057600080fd5b81516020620006a9620006a38362000658565b62000625565b82815260059290921b84018101918181019086841115620006c957600080fd5b8286015b84811015620006e65780518352918301918301620006cd565b509695505050505050565b600082601f8301126200070357600080fd5b8151602062000716620006a38362000658565b828152600592831b85018201928282019190878511156200073657600080fd5b8387015b85811015620007e15780516001600160401b038111156200075b5760008081fd5b8801603f81018a136200076e5760008081fd5b85810151604062000783620006a38362000658565b82815291851b8301810191888101908d841115620007a15760008081fd5b938201935b83851015620007cf5784519250620007be83620005e7565b8282529389019390890190620007a6565b8852505050938501935084016200073a565b5090979650505050505050565b60008060008060008060008060006101208a8c0312156200080e57600080fd5b620008198a620005fd565b60208b01519099506001600160401b03808211156200083757600080fd5b620008458d838e016200067e565b995060408c01519150808211156200085c57600080fd5b6200086a8d838e016200067e565b985060608c01519150808211156200088157600080fd5b6200088f8d838e016200067e565b975060808c0151915080821115620008a657600080fd5b50620008b58c828d01620006f1565b955050620008c660a08b01620005fd565b9350620008d660c08b01620005fd565b925060e08a01519150620008ee6101008b01620005fd565b90509295985092959850929598565b634e487b7160e01b600052603260045260246000fd5b6000600182016200093457634e487b7160e01b600052601160045260246000fd5b5060010190565b60805160a05160c051613bdf620009db600039600081816105ad0152611de601526000818161041601528181610661015281816107180152818161089301528181610e0001528181610e8c0152818161114401528181611b7701528181612030015281816123b40152818161248801528181612570015281816129690152612a5801526000818161048a01528181611353015261137f0152613bdf6000f3fe6080604052600436106101dc5760003560e01c80639881734c11610102578063e0d9393111610095578063f8751a5811610064578063f8751a581461055d578063f887ea401461057d578063fbc7d10b1461059b578063fe1067cb146105cf57600080fd5b8063e0d93931146104f4578063e1f21c67146104fc578063e7ece0fb1461052c578063f851a4401461053f57600080fd5b8063b9021a4d116100d1578063b9021a4d14610478578063c0d78655146104ac578063ccfbf94d146104cc578063cfcd2679146104df57600080fd5b80639881734c146103e257806399fa5e2d14610404578063a38f574214610438578063ad97db1b1461045857600080fd5b8063675b4ef11161017a578063734badcb11610149578063734badcb1461036a5780638de30bb51461038c578063924763e3146103ac578063927c7fc1146103c257600080fd5b8063675b4ef1146102ea5780636c49c32c1461030a578063704b6c021461032a5780637144df241461034a57600080fd5b80635293840d116101b65780635293840d1461025d5780635570db1d1461027d57806355a79f2d146102aa578063638769f5146102ca57600080fd5b806303eb17e2146101e857806327d8e4a11461020a5780633d3d130d1461023d57600080fd5b366101e357005b600080fd5b3480156101f457600080fd5b5061020861020336600461314a565b6105ef565b005b34801561021657600080fd5b5061022a6102253660046131bf565b61063e565b6040519081526020015b60405180910390f35b34801561024957600080fd5b506102086102583660046131f1565b61065f565b34801561026957600080fd5b5061020861027836600461314a565b61078a565b34801561028957600080fd5b50610292600081565b6040516001600160a01b039091168152602001610234565b3480156102b657600080fd5b5061022a6102c5366004613234565b6107fe565b3480156102d657600080fd5b5061022a6102e53660046131bf565b61083b565b3480156102f657600080fd5b50610292610305366004613234565b61084b565b34801561031657600080fd5b5061022a610325366004613256565b61088f565b34801561033657600080fd5b50610208610345366004613293565b610ce3565b34801561035657600080fd5b506102086103653660046132b0565b610db8565b34801561037657600080fd5b5061037f610fe8565b60405161023491906132e0565b34801561039857600080fd5b5061022a6103a736600461336a565b611081565b3480156103b857600080fd5b5061022a60095481565b3480156103ce57600080fd5b50600754610292906001600160a01b031681565b3480156103ee57600080fd5b506103f7611096565b60405161023491906133ef565b34801561041057600080fd5b506102927f000000000000000000000000000000000000000000000000000000000000000081565b34801561044457600080fd5b5061022a6104533660046131bf565b611130565b34801561046457600080fd5b5061022a61047336600461345f565b611140565b34801561048457600080fd5b5061022a7f000000000000000000000000000000000000000000000000000000000000000081565b3480156104b857600080fd5b506102086104c7366004613293565b6111b8565b61022a6104da3660046134b2565b611230565b3480156104eb57600080fd5b5061022a6112c5565b6102086113a8565b34801561050857600080fd5b5061051c61051736600461336a565b611ae9565b6040519015158152602001610234565b61020861053a36600461350b565b611b75565b34801561054b57600080fd5b506000546001600160a01b0316610292565b34801561056957600080fd5b50600854610292906001600160a01b031681565b34801561058957600080fd5b506001546001600160a01b0316610292565b3480156105a757600080fd5b506102927f000000000000000000000000000000000000000000000000000000000000000081565b3480156105db57600080fd5b506102086105ea366004613742565b611c3d565b60005b818110156106395761062983838381811061060f5761060f61381a565b90506020020160208101906106249190613293565b611d90565b61063281613846565b90506105f2565b505050565b6005818154811061064e57600080fd5b600091825260209091200154905081565b7f0000000000000000000000000000000000000000000000000000000000000000336001600160a01b038216146106b15760405162461bcd60e51b81526004016106a89061385f565b60405180910390fd5b81602001356f6d67762f74726164655375636365737360801b036106e0576106da838335611e4d565b50505050565b604083018035906106f49060208601613293565b6001600160a01b031661070a6020860186613293565b604080516001600160a01b037f0000000000000000000000000000000000000000000000000000000000000000811682528735602080840191909152880135928201929092529116907f84caca153d4896fd9d59ff942e5b76657222a696bf5b2acc0257867e05ef32819060600160405180910390a46106da8383611fe1565b6000546001600160a01b031633146107b45760405162461bcd60e51b81526004016106a89061385f565b60005b81811015610639576107ee8383838181106107d4576107d461381a565b90506020020160208101906107e99190613293565b612014565b6107f781613846565b90506107b7565b600a828154811061080e57600080fd5b90600052602060002001818154811061082657600080fd5b90600052602060002001600091509150505481565b6003818154811061064e57600080fd5b6006828154811061085b57600080fd5b90600052602060002001818154811061087357600080fd5b6000918252602090912001546001600160a01b03169150829050565b60007f0000000000000000000000000000000000000000000000000000000000000000336001600160a01b038216146108da5760405162461bcd60e51b81526004016106a89061385f565b6108e38361216b565b915060a08301356108fa6040850160208601613293565b6040516370a0823160e01b81523060048201526001600160a01b0391909116906370a0823190602401602060405180830381865afa158015610940573d6000803e3d6000fd5b505050506040513d601f19601f820116820180604052508101906109649190613896565b10156109b25760405162461bcd60e51b815260206004820152601c60248201527f4d794f666665722f476f74496e73756666696369656e7446756e64730000000060448201526064016106a8565b6007546000906001600160a01b031663e6a439056109d66040870160208801613293565b6109e36020880188613293565b6040516001600160e01b031960e085901b1681526001600160a01b03928316600482015291166024820152604401602060405180830381865afa158015610a2e573d6000803e3d6000fd5b505050506040513d601f19601f82011682018060405250810190610a5291906138af565b9050610a5d816121d7565b6001600160a01b038116610aa45760405162461bcd60e51b815260206004820152600e60248201526d1410525497d393d517d193d5539160921b60448201526064016106a8565b600080610ad2610aba6040880160208901613293565b610ac76020890189613293565b858960a0013561221f565b915091508560800135811015610b1b5760405162461bcd60e51b815260206004820152600e60248201526d4e6f742070726f66697461626c6560901b60448201526064016106a8565b610b2b6040870160208801613293565b60085460405163095ea7b360e01b81526001600160a01b03918216600482015260a0890135602482015291169063095ea7b3906044016020604051808303816000875af1158015610b80573d6000803e3d6000fd5b505050506040513d601f19601f82011682018060405250810190610ba491906138cc565b50600854604051635c11d79560e01b81526001600160a01b0390911690635c11d79590610be59060a08a01359060808b0135908790309042906004016138e9565b600060405180830381600087803b158015610bff57600080fd5b505af1158015610c13573d6000803e3d6000fd5b505050506080860135610c296020880188613293565b6040516370a0823160e01b81523060048201526001600160a01b0391909116906370a0823190602401602060405180830381865afa158015610c6f573d6000803e3d6000fd5b505050506040513d601f19601f82011682018060405250810190610c939190613896565b1015610cda5760405162461bcd60e51b81526020600482015260166024820152754d794f666665722f4e6f74456e6f75676846756e647360501b60448201526064016106a8565b50505050919050565b6000546001600160a01b03163314610d0d5760405162461bcd60e51b81526004016106a89061385f565b6001600160a01b038116610d635760405162461bcd60e51b815260206004820152601860248201527f416363657373436f6e74726f6c6c65642f307841646d696e000000000000000060448201526064016106a8565b600080546001600160a01b0319166001600160a01b0383169081179091556040519081527f5a272403b402d892977df56625f4164ccaf70ca3863991c43ecfe76a6905b0a1906020015b60405180910390a150565b6000546001600160a01b03163314610de25760405162461bcd60e51b81526004016106a89061385f565b6000198203610e76576040516370a0823160e01b81523060048201527f00000000000000000000000000000000000000000000000000000000000000006001600160a01b0316906370a0823190602401602060405180830381865afa158015610e4f573d6000803e3d6000fd5b505050506040513d601f19601f82011682018060405250810190610e739190613896565b91505b604051632e1a7d4d60e01b8152600481018390527f00000000000000000000000000000000000000000000000000000000000000006001600160a01b031690632e1a7d4d906024016020604051808303816000875af1158015610edd573d6000803e3d6000fd5b505050506040513d601f19601f82011682018060405250810190610f0191906138cc565b610f455760405162461bcd60e51b81526020600482015260156024820152741b59dd93d999995c8bddda5d1a191c985dd1985a5b605a1b60448201526064016106a8565b6000816001600160a01b03168360405160006040518083038185875af1925050503d8060008114610f92576040519150601f19603f3d011682016040523d82523d6000602084013e610f97565b606091505b50509050806106395760405162461bcd60e51b815260206004820152601860248201527f6d67764f666665722f7765695472616e736665724661696c000000000000000060448201526064016106a8565b6060600a805480602002602001604051908101604052809291908181526020016000905b828210156110785760008481526020908190208301805460408051828502810185019091528181529283018282801561106457602002820191906000526020600020905b815481526020019060010190808311611050575b50505050508152602001906001019061100c565b50505050905090565b600061108e848484612381565b949350505050565b60606006805480602002602001604051908101604052809291908181526020016000905b828210156110785760008481526020908190208301805460408051828502810185019091528181529283018282801561111c57602002820191906000526020600020905b81546001600160a01b031681526001909101906020018083116110fe575b5050505050815260200190600101906110ba565b6004818154811061064e57600080fd5b60007f0000000000000000000000000000000000000000000000000000000000000000336001600160a01b038216148061118457506000546001600160a01b031633145b6111a05760405162461bcd60e51b81526004016106a89061385f565b6111ac8686868661244f565b91505b50949350505050565b6000546001600160a01b031633146111e25760405162461bcd60e51b81526004016106a89061385f565b600180546001600160a01b0319166001600160a01b0383169081179091556040519081527f6de4326a8b9054d72d9dbab97d27bc4edffadee7d966f5af9cc4eafdaf8e545590602001610dad565b600080546001600160a01b0316331461125b5760405162461bcd60e51b81526004016106a89061385f565b6112b9604051806101200160405280896001600160a01b03168152602001886001600160a01b031681526020018781526020018681526020018481526020016000815260200185815260200134815260200160001515815250612500565b50979650505050505050565b6000806112da6001546001600160a01b031690565b90506001600160a01b0381161561137d57806001600160a01b0316633fd25eab6040518163ffffffff1660e01b8152600401602060405180830381865afa158015611329573d6000803e3d6000fd5b505050506040513d601f19601f8201168201806040525081019061134d9190613896565b611377907f0000000000000000000000000000000000000000000000000000000000000000613925565b91505090565b7f000000000000000000000000000000000000000000000000000000000000000091505090565b5090565b6000546001600160a01b031633146113d25760405162461bcd60e51b81526004016106a89061385f565b60005b600654811015611ae65760006001600160a01b0316600682815481106113fd576113fd61381a565b906000526020600020016000815481106114195761141961381a565b6000918252602090912001546001600160a01b031614801590611489575060006001600160a01b0316600682815481106114555761145561381a565b906000526020600020016001815481106114715761147161381a565b6000918252602090912001546001600160a01b031614155b6114cd5760405162461bcd60e51b8152602060048201526015602482015274544f4b454e2041444452455353204953205a45524f60581b60448201526064016106a8565b600754600680546000926001600160a01b03169163e6a4390591859081106114f7576114f761381a565b906000526020600020016000815481106115135761151361381a565b600091825260209091200154600680546001600160a01b03909216918690811061153f5761153f61381a565b9060005260206000200160018154811061155b5761155b61381a565b60009182526020909120015460405160e084901b6001600160e01b03191681526001600160a01b03928316600482015291166024820152604401602060405180830381865afa1580156115b2573d6000803e3d6000fd5b505050506040513d601f19601f820116820180604052508101906115d691906138af565b90506115e1816121d7565b6001600160a01b0381166116285760405162461bcd60e51b815260206004820152600e60248201526d1410525497d393d517d193d5539160921b60448201526064016106a8565b6040805160028082526060820183526000926020830190803683370190505090506006838154811061165c5761165c61381a565b906000526020600020016001815481106116785761167861381a565b600091825260208220015482516001600160a01b0390911691839161169f5761169f61381a565b60200260200101906001600160a01b031690816001600160a01b031681525050600683815481106116d2576116d261381a565b906000526020600020016000815481106116ee576116ee61381a565b9060005260206000200160009054906101000a90046001600160a01b03168160018151811061171f5761171f61381a565b6001600160a01b03929092166020928302919091019091015260408051600180825281830190925260009181602001602082028036833701905050905082816000815181106117705761177061381a565b6001600160a01b039290921660209283029190910190910152604080516001808252818301909252600091816020016020820280368337019050509050600954816000815181106117c3576117c361381a565b60200260200101818152505060006117fa600487815481106117e7576117e761381a565b906000526020600020015485858561265d565b905061183a846000815181106118125761181261381a565b60200260200101518560018151811061182d5761182d61381a565b602002602001015161280b565b6118a2600487815481106118505761185061381a565b9060005260206000200154604051806040016040528060028152602001611e9f60f11b81525083600185516118859190613938565b815181106118955761189561381a565b602002602001015161285b565b6118f8600687815481106118b8576118b861381a565b906000526020600020016000815481106118d4576118d461381a565b6000918252602090912001546002546001600160a01b0391821691166000196128a2565b5061192b6006878154811061190f5761190f61381a565b906000526020600020016001815481106118d4576118d461381a565b506000611a6a60405180610120016040528060068a815481106119505761195061381a565b9060005260206000200160008154811061196c5761196c61381a565b600091825260209182902001546001600160a01b031682526006805492909101918b90811061199d5761199d61381a565b906000526020600020016001815481106119b9576119b961381a565b600091825260209182902001546001600160a01b031682526004805492909101918b9081106119ea576119ea61381a565b90600052602060002001548152602001674563918244f400008560018751611a129190613938565b81518110611a2257611a2261381a565b6020026020010151611a349190613938565b8152602001620f42408152602001600081526020016000815260200167016345785d8a0000815260200160001515815250612500565b509050600a8781548110611a8057611a8061381a565b6000918252602080832090910180546001810182559083529181902090910182905560408051808201909152600881526727b33332b924a21d60c11b91810191909152611acd90826128af565b5050505050508080611ade90613846565b9150506113d5565b50565b600080546001600160a01b03163314611b145760405162461bcd60e51b81526004016106a89061385f565b611b1f8484846128a2565b611b6b5760405162461bcd60e51b815260206004820152601760248201527f6d67764f666665722f617070726f76652f6661696c656400000000000000000060448201526064016106a8565b5060019392505050565b7f0000000000000000000000000000000000000000000000000000000000000000336001600160a01b0382161480611bb757506000546001600160a01b031633145b611bd35760405162461bcd60e51b81526004016106a89061385f565b611c326040518061012001604052808a6001600160a01b03168152602001896001600160a01b031681526020018881526020018781526020018481526020016000815260200186815260200134815260200160001515815250846128f4565b505050505050505050565b8651611c509060039060208a0190612f8f565b508551611c64906004906020890190612f8f565b508451611c78906005906020880190612f8f565b508351611c8c906006906020870190612fd6565b50600780546001600160a01b038086166001600160a01b0319928316179092556008805492851692909116919091179055600981905560065467ffffffffffffffff811115611cdd57611cdd61356d565b604051908082528060200260200182016040528015611d1057816020015b6060815260200190600190039081611cfb5790505b508051611d2591600a9160209091019061302f565b5060005b600654811015611d8657604080516000815260208101909152600a805483908110611d5657611d5661381a565b906000526020600020019080519060200190611d73929190612f8f565b5080611d7e81613846565b915050611d29565b5050505050505050565b611d9981612a3b565b6000611dad6001546001600160a01b031690565b6001600160a01b031614611ae6576001546001600160a01b0316604051631403b99b60e31b81526001600160a01b0383811660048301527f000000000000000000000000000000000000000000000000000000000000000081166024830152919091169063a01dccd89060440160006040518083038186803b158015611e3257600080fd5b505afa158015611e46573d6000803e3d6000fd5b5050505050565b600080611e606040850160208601613293565b6040516370a0823160e01b81523060048201526001600160a01b0391909116906370a0823190602401602060405180830381865afa158015611ea6573d6000803e3d6000fd5b505050506040513d601f19601f82011682018060405250810190611eca9190613896565b90506000611edb6020860186613293565b6040516370a0823160e01b81523060048201526001600160a01b0391909116906370a0823190602401602060405180830381865afa158015611f21573d6000803e3d6000fd5b505050506040513d601f19601f82011682018060405250810190611f459190613896565b9050611f746040518060400160405280600b81526020016a2422a922902ca2a99024a760a91b815250836128af565b611fa26040518060400160405280600c81526020016b1211549148165154c813d55560a21b815250826128af565b60408051808201909152600581526420a226a4a760d91b6020820152600054611fd491906001600160a01b0316612b26565b5060009150505b92915050565b600061200b6040518060400160405280600781526020016648455245204e4f60c81b815250612b6b565b50600092915050565b60006120286001546001600160a01b031690565b9050612057827f00000000000000000000000000000000000000000000000000000000000000006000196128a2565b6120a35760405162461bcd60e51b815260206004820152601d60248201527f6d67764f666665722f617070726f76654d616e67726f76652f4661696c00000060448201526064016106a8565b6001600160a01b03811615612167576120bf82826000196128a2565b61210b5760405162461bcd60e51b815260206004820152601a60248201527f6d67764f666665722f617070726f7665526f757465724661696c00000000000060448201526064016106a8565b604051630716a76760e21b81526001600160a01b038381166004830152821690631c5a9d9c90602401600060405180830381600087803b15801561214e57600080fd5b505af1158015612162573d6000803e3d6000fd5b505050505b5050565b60006bffffffffffffffffffffffff6060830135168260800135146121d25760405162461bcd60e51b815260206004820152601860248201527f4d794f666665722f6d757374426546756c6c7954616b656e000000000000000060448201526064016106a8565b919050565b6040516001600160a01b0382166024820152611ae69060440160408051601f198184030181529190526020810180516001600160e01b031663161765e160e11b179052612baa565b6040805160028082526060808301845292600092919060208301908036833701905050915085826000815181106122585761225861381a565b60200260200101906001600160a01b031690816001600160a01b031681525050848260018151811061228c5761228c61381a565b6001600160a01b03929092166020928302919091019091015260408051600180825281830190925260009181602001602082028036833701905050905084816000815181106122dd576122dd61381a565b6001600160a01b039290921660209283029190910190910152604080516001808252818301909252600091816020016020820280368337019050509050600954816000815181106123305761233061381a565b602002602001018181525050600061234a8686858561265d565b9050806001825161235b9190613938565b8151811061236b5761236b61381a565b6020026020010151935050505094509492505050565b604051635722647b60e01b81526001600160a01b03848116600483015283811660248301526044820183905260009182917f00000000000000000000000000000000000000000000000000000000000000001690635722647b90606401602060405180830381865afa1580156123fb573d6000803e3d6000fd5b505050506040513d601f19601f8201168201806040525081019061241f9190613896565b9050604881901c62ffffff16603082901c62ffffff1601602082901c61ffff1602633b9aca000295945050505050565b60405163ad97db1b60e01b81526001600160a01b03858116600483015284811660248301526044820184905282151560648301526000917f00000000000000000000000000000000000000000000000000000000000000009091169063ad97db1b906084016020604051808303816000875af11580156124d3573d6000803e3d6000fd5b505050506040513d601f19601f820116820180604052508101906124f79190613896565b95945050505050565b60e0810151815160208301516040808501516060860151608087015160a088015160c0890151945163127db4b760e21b81526001600160a01b039788166004820152958716602487015260448601939093526064850191909152608484015260a483015260c482015260009283927f000000000000000000000000000000000000000000000000000000000000000016916349f6d2dc919060e40160206040518083038185885af1935050505080156125d6575060408051601f3d908101601f191682019092526125d391810190613896565b60015b612644576125e261394b565b806308c379a00361263857506125f6613967565b80612601575061263a565b83610100015181906126265760405162461bcd60e51b81526004016106a89190613a41565b5061263081613a54565b915050915091565b505b3d6000803e3d6000fd5b936c1bd999995c8bd8dc99585d1959609a1b9350915050565b60606002845110156126a95760405162461bcd60e51b8152602060048201526015602482015274098d2c4e4c2e4f27440929cac82989288bea082a89605b1b60448201526064016106a8565b835167ffffffffffffffff8111156126c3576126c361356d565b6040519080825280602002602001820160405280156126ec578160200160208202803683370190505b50905084816000815181106127035761270361381a565b60200260200101818152505060005b600185516127209190613938565b8110156111af5760008061278c86848151811061273f5761273f61381a565b60200260200101518885815181106127595761275961381a565b60200260200101518986600161276f9190613925565b8151811061277f5761277f61381a565b6020026020010151612bcb565b915091506127ce8484815181106127a5576127a561381a565b602002602001015183838887815181106127c1576127c161381a565b6020026020010151612c8b565b846127da856001613925565b815181106127ea576127ea61381a565b6020026020010181815250505050808061280390613846565b915050612712565b6040516001600160a01b038084166024830152821660448201526121679060640160408051601f198184030181529190526020810180516001600160e01b0316636d786a5560e11b179052612baa565b61063983838360405160240161287393929190613a78565b60408051601f198184030181529190526020810180516001600160e01b0316630dea9f5360e21b179052612baa565b600061108e848484612d9d565b61216782826040516024016128c5929190613aa1565b60408051601f198184030181529190526020810180516001600160e01b0316632d839cb360e21b179052612baa565b60e0820151825160208401516040808601516060870151608088015160a089015160c08a01519451636a4f769160e01b81526001600160a01b039788166004820152958716602487015260448601939093526064850191909152608484015260a483015260c482015260e481018490526000927f000000000000000000000000000000000000000000000000000000000000000090921691636a4f769191610104016000604051808303818588803b1580156129af57600080fd5b505af1935050505080156129c1575060015b612a23576129cd61394b565b806308c379a00361263857506129e1613967565b806129ec575061263a565b8361010001518190612a115760405162461bcd60e51b81526004016106a89190613a41565b50612a1b81613a54565b915050611fdb565b506c1bd999995c8bdd5c19185d1959609a1b92915050565b604051636eb1769f60e11b81523060048201526001600160a01b037f0000000000000000000000000000000000000000000000000000000000000000811660248301526000919083169063dd62ed3e90604401602060405180830381865afa158015612aab573d6000803e3d6000fd5b505050506040513d601f19601f82011682018060405250810190612acf9190613896565b11611ae65760405162461bcd60e51b815260206004820152602160248201527f6d67764f666665722f4c6f6769634d757374417070726f76654d616e67726f766044820152606560f81b60648201526084016106a8565b6121678282604051602401612b3c929190613ac3565b60408051601f198184030181529190526020810180516001600160e01b031663319af33360e01b179052612baa565b611ae681604051602401612b7f9190613a41565b60408051601f198184030181529190526020810180516001600160e01b031663104c13eb60e21b1790525b80516a636f6e736f6c652e6c6f67602083016000808483855afa5050505050565b6000806000612bda8585612e71565b509050600080876001600160a01b0316630902f1ac6040518163ffffffff1660e01b8152600401606060405180830381865afa158015612c1e573d6000803e3d6000fd5b505050506040513d601f19601f82011682018060405250810190612c429190613b04565b506001600160701b031691506001600160701b03169150826001600160a01b0316876001600160a01b031614612c79578082612c7c565b81815b90999098509650505050505050565b6000808511612ce75760405162461bcd60e51b815260206004820152602260248201527f4c6962726172793a20494e53554646494349454e545f494e5055545f414d4f55604482015261139560f21b60648201526084016106a8565b600084118015612cf75750600083115b612d435760405162461bcd60e51b815260206004820152601f60248201527f4c6962726172793a20494e53554646494349454e545f4c49515549444954590060448201526064016106a8565b6127106000612d5c612d558386612f64565b8890612f77565b90506000612d6a8287612f77565b90506000612d8483612d7e8a612710612f77565b90612f83565b9050612d908183613b54565b9998505050505050505050565b604080516001600160a01b038481166024830152604480830185905283518084039091018152606490920183526020820180516001600160e01b031663095ea7b360e01b17905291516000928392839291881691612dfb9190613b76565b6000604051808303816000865af19150503d8060008114612e38576040519150601f19603f3d011682016040523d82523d6000602084013e612e3d565b606091505b5091509150818015612e67575080511580612e67575080806020019051810190612e6791906138cc565b9695505050505050565b600080826001600160a01b0316846001600160a01b031603612edf5760405162461bcd60e51b815260206004820152602160248201527f4c69627261727920536f72743a204944454e544943414c5f41444452455353456044820152605360f81b60648201526084016106a8565b826001600160a01b0316846001600160a01b031610612eff578284612f02565b83835b90925090506001600160a01b038216612f5d5760405162461bcd60e51b815260206004820152601a60248201527f4c69627261727920536f72743a205a45524f5f4144445245535300000000000060448201526064016106a8565b9250929050565b6000612f708284613938565b9392505050565b6000612f708284613b92565b6000612f708284613925565b828054828255906000526020600020908101928215612fca579160200282015b82811115612fca578251825591602001919060010190612faf565b506113a4929150613088565b828054828255906000526020600020908101928215613023579160200282015b82811115613023578251805161301391849160209091019061309d565b5091602001919060010190612ff6565b506113a49291506130f2565b82805482825590600052602060002090810192821561307c579160200282015b8281111561307c578251805161306c918491602090910190612f8f565b509160200191906001019061304f565b506113a492915061310f565b5b808211156113a45760008155600101613089565b828054828255906000526020600020908101928215612fca579160200282015b82811115612fca57825182546001600160a01b0319166001600160a01b039091161782556020909201916001909101906130bd565b808211156113a4576000613106828261312c565b506001016130f2565b808211156113a4576000613123828261312c565b5060010161310f565b5080546000825590600052602060002090810190611ae69190613088565b6000806020838503121561315d57600080fd5b823567ffffffffffffffff8082111561317557600080fd5b818501915085601f83011261318957600080fd5b81358181111561319857600080fd5b8660208260051b85010111156131ad57600080fd5b60209290920196919550909350505050565b6000602082840312156131d157600080fd5b5035919050565b600061012082840312156131eb57600080fd5b50919050565b60008082840361016081121561320657600080fd5b61321085856131d8565b9250604061011f198201121561322557600080fd5b50610120830190509250929050565b6000806040838503121561324757600080fd5b50508035926020909101359150565b6000610120828403121561326957600080fd5b612f7083836131d8565b6001600160a01b0381168114611ae657600080fd5b80356121d281613273565b6000602082840312156132a557600080fd5b8135612f7081613273565b600080604083850312156132c357600080fd5b8235915060208301356132d581613273565b809150509250929050565b6000602080830181845280855180835260408601915060408160051b87010192508387016000805b8381101561335c57888603603f19018552825180518088529088019088880190845b818110156133465783518352928a0192918a019160010161332a565b5090975050509386019391860191600101613308565b509398975050505050505050565b60008060006060848603121561337f57600080fd5b833561338a81613273565b9250602084013561339a81613273565b929592945050506040919091013590565b600081518084526020808501945080840160005b838110156133e45781516001600160a01b0316875295820195908201906001016133bf565b509495945050505050565b6000602080830181845280855180835260408601915060408160051b870101925083870160005b8281101561344457603f198886030184526134328583516133ab565b94509285019290850190600101613416565b5092979650505050505050565b8015158114611ae657600080fd5b6000806000806080858703121561347557600080fd5b843561348081613273565b9350602085013561349081613273565b92506040850135915060608501356134a781613451565b939692955090935050565b60008060008060008060c087890312156134cb57600080fd5b86356134d681613273565b955060208701356134e681613273565b95989597505050506040840135936060810135936080820135935060a0909101359150565b600080600080600080600060e0888a03121561352657600080fd5b873561353181613273565b9650602088013561354181613273565b96999698505050506040850135946060810135946080820135945060a0820135935060c0909101359150565b634e487b7160e01b600052604160045260246000fd5b601f8201601f1916810167ffffffffffffffff811182821017156135a9576135a961356d565b6040525050565b600067ffffffffffffffff8211156135ca576135ca61356d565b5060051b60200190565b600082601f8301126135e557600080fd5b813560206135f2826135b0565b6040516135ff8282613583565b83815260059390931b850182019282810191508684111561361f57600080fd5b8286015b8481101561363a5780358352918301918301613623565b509695505050505050565b600082601f83011261365657600080fd5b81356020613663826135b0565b604080516136718382613583565b848152600594851b870184019484820193508886111561369057600080fd5b8488015b8681101561373457803567ffffffffffffffff8111156136b45760008081fd5b8901603f81018b136136c65760008081fd5b868101356136d3816135b0565b86516136df8282613583565b82815291851b830187019189810191508d8311156136fd5760008081fd5b928701925b8284101561372457833561371581613273565b82529289019290890190613702565b8852505050938501938501613694565b509098975050505050505050565b600080600080600080600060e0888a03121561375d57600080fd5b873567ffffffffffffffff8082111561377557600080fd5b6137818b838c016135d4565b985060208a013591508082111561379757600080fd5b6137a38b838c016135d4565b975060408a01359150808211156137b957600080fd5b6137c58b838c016135d4565b965060608a01359150808211156137db57600080fd5b506137e88a828b01613645565b9450506137f760808901613288565b925061380560a08901613288565b915060c0880135905092959891949750929550565b634e487b7160e01b600052603260045260246000fd5b634e487b7160e01b600052601160045260246000fd5b60006001820161385857613858613830565b5060010190565b60208082526018908201527f416363657373436f6e74726f6c6c65642f496e76616c69640000000000000000604082015260600190565b6000602082840312156138a857600080fd5b5051919050565b6000602082840312156138c157600080fd5b8151612f7081613273565b6000602082840312156138de57600080fd5b8151612f7081613451565b85815284602082015260a06040820152600061390860a08301866133ab565b6001600160a01b0394909416606083015250608001529392505050565b80820180821115611fdb57611fdb613830565b81810381811115611fdb57611fdb613830565b600060033d11156139645760046000803e5060005160e01c5b90565b600060443d10156139755790565b6040516003193d81016004833e81513d67ffffffffffffffff81602484011181841117156139a557505050505090565b82850191508151818111156139bd5750505050505090565b843d87010160208285010111156139d75750505050505090565b6139e660208286010187613583565b509095945050505050565b60005b83811015613a0c5781810151838201526020016139f4565b50506000910152565b60008151808452613a2d8160208601602086016139f1565b601f01601f19169290920160200192915050565b602081526000612f706020830184613a15565b805160208083015191908110156131eb5760001960209190910360031b1b16919050565b838152606060208201526000613a916060830185613a15565b9050826040830152949350505050565b604081526000613ab46040830185613a15565b90508260208301529392505050565b604081526000613ad66040830185613a15565b905060018060a01b03831660208301529392505050565b80516001600160701b03811681146121d257600080fd5b600080600060608486031215613b1957600080fd5b613b2284613aed565b9250613b3060208501613aed565b9150604084015163ffffffff81168114613b4957600080fd5b809150509250925092565b600082613b7157634e487b7160e01b600052601260045260246000fd5b500490565b60008251613b888184602087016139f1565b9190910192915050565b8082028115828204841417611fdb57611fdb61383056fea2646970667358221220ec2d8a2a664dd149f3d30adc63a99962bbfdb96488ba8a02a9da8163b2eaf21464736f6c63430008140033",
    "linkReferences": {}
  },
  "methodIdentifiers": {
    "MGV()": "99fa5e2d",
    "NO_ROUTER()": "5570db1d",
    "OFFER_GASREQ()": "b9021a4d",
    "RESERVE_ID()": "fbc7d10b",
    "activate(address[])": "5293840d",
    "admin()": "f851a440",
    "approve(address,address,uint256)": "e1f21c67",
    "checkList(address[])": "03eb17e2",
    "createInitialOffers()": "e0d93931",
    "getOfferLists()": "734badcb",
    "getTrackedPairs()": "9881734c",
    "makerExecute((address,address,uint256,uint256,uint256,uint256,uint256,uint256,uint256))": "6c49c32c",
    "makerPosthook((address,address,uint256,uint256,uint256,uint256,uint256,uint256,uint256),(bytes32,bytes32))": "3d3d130d",
    "newOffer(address,address,uint256,uint256,uint256,uint256)": "ccfbf94d",
    "offerGasreq()": "cfcd2679",
    "offerLists(uint256,uint256)": "55a79f2d",
    "otherDexFactory()": "927c7fc1",
    "otherDexFees()": "924763e3",
    "otherDexRouter()": "f8751a58",
    "pairs(uint256,uint256)": "675b4ef1",
    "provisionOf(address,address,uint256)": "8de30bb5",
    "retractOffer(address,address,uint256,bool)": "ad97db1b",
    "router()": "f887ea40",
    "setAdmin(address)": "704b6c02",
    "setRouter(address)": "c0d78655",
    "spread(uint256)": "638769f5",
    "tenacity(uint256)": "27d8e4a1",
    "updateOffer(address,address,uint256,uint256,uint256,uint256,uint256)": "e7ece0fb",
    "updateParams(uint256[],uint256[],uint256[],address[][],address,address,uint256)": "fe1067cb",
    "volume(uint256)": "a38f5742",
    "withdrawFromMangrove(uint256,address)": "7144df24"
  },
  "id": 0
}